{
  "_format": "hh-sol-artifact-1",
  "contractName": "TestPoL",
  "sourceName": "contracts/TestPoL.sol",
  "abi": [
    {
      "inputs": [],
      "stateMutability": "nonpayable",
      "type": "constructor"
    },
    {
      "anonymous": false,
      "inputs": [
        {
          "indexed": true,
          "internalType": "address",
          "name": "owner",
          "type": "address"
        },
        {
          "indexed": true,
          "internalType": "address",
          "name": "spender",
          "type": "address"
        },
        {
          "indexed": false,
          "internalType": "uint256",
          "name": "value",
          "type": "uint256"
        }
      ],
      "name": "Approval",
      "type": "event"
    },
    {
      "anonymous": false,
      "inputs": [],
      "name": "EIP712DomainChanged",
      "type": "event"
    },
    {
      "anonymous": false,
      "inputs": [
        {
          "indexed": false,
          "internalType": "uint8",
          "name": "version",
          "type": "uint8"
        }
      ],
      "name": "Initialized",
      "type": "event"
    },
    {
      "anonymous": false,
      "inputs": [
        {
          "indexed": true,
          "internalType": "address",
          "name": "previousOwner",
          "type": "address"
        },
        {
          "indexed": true,
          "internalType": "address",
          "name": "newOwner",
          "type": "address"
        }
      ],
      "name": "OwnershipTransferred",
      "type": "event"
    },
    {
      "anonymous": false,
      "inputs": [
        {
          "indexed": false,
          "internalType": "address",
          "name": "account",
          "type": "address"
        }
      ],
      "name": "Paused",
      "type": "event"
    },
    {
      "anonymous": false,
      "inputs": [
        {
          "indexed": true,
          "internalType": "address",
          "name": "from",
          "type": "address"
        },
        {
          "indexed": true,
          "internalType": "address",
          "name": "to",
          "type": "address"
        },
        {
          "indexed": false,
          "internalType": "uint256",
          "name": "value",
          "type": "uint256"
        }
      ],
      "name": "Transfer",
      "type": "event"
    },
    {
      "anonymous": false,
      "inputs": [
        {
          "indexed": false,
          "internalType": "address",
          "name": "account",
          "type": "address"
        }
      ],
      "name": "Unpaused",
      "type": "event"
    },
    {
      "inputs": [],
      "name": "DOMAIN_SEPARATOR",
      "outputs": [
        {
          "internalType": "bytes32",
          "name": "",
          "type": "bytes32"
        }
      ],
      "stateMutability": "view",
      "type": "function"
    },
    {
      "inputs": [
        {
          "internalType": "address",
          "name": "owner",
          "type": "address"
        },
        {
          "internalType": "address",
          "name": "spender",
          "type": "address"
        }
      ],
      "name": "allowance",
      "outputs": [
        {
          "internalType": "uint256",
          "name": "",
          "type": "uint256"
        }
      ],
      "stateMutability": "view",
      "type": "function"
    },
    {
      "inputs": [
        {
          "internalType": "address",
          "name": "spender",
          "type": "address"
        },
        {
          "internalType": "uint256",
          "name": "amount",
          "type": "uint256"
        }
      ],
      "name": "approve",
      "outputs": [
        {
          "internalType": "bool",
          "name": "",
          "type": "bool"
        }
      ],
      "stateMutability": "nonpayable",
      "type": "function"
    },
    {
      "inputs": [
        {
          "internalType": "address",
          "name": "account",
          "type": "address"
        }
      ],
      "name": "balanceOf",
      "outputs": [
        {
          "internalType": "uint256",
          "name": "",
          "type": "uint256"
        }
      ],
      "stateMutability": "view",
      "type": "function"
    },
    {
      "inputs": [
        {
          "internalType": "uint256",
          "name": "amount",
          "type": "uint256"
        }
      ],
      "name": "burn",
      "outputs": [],
      "stateMutability": "nonpayable",
      "type": "function"
    },
    {
      "inputs": [
        {
          "internalType": "address",
          "name": "account",
          "type": "address"
        },
        {
          "internalType": "uint256",
          "name": "amount",
          "type": "uint256"
        }
      ],
      "name": "burnFrom",
      "outputs": [],
      "stateMutability": "nonpayable",
      "type": "function"
    },
    {
      "inputs": [],
      "name": "decimals",
      "outputs": [
        {
          "internalType": "uint8",
          "name": "",
          "type": "uint8"
        }
      ],
      "stateMutability": "view",
      "type": "function"
    },
    {
      "inputs": [
        {
          "internalType": "address",
          "name": "spender",
          "type": "address"
        },
        {
          "internalType": "uint256",
          "name": "subtractedValue",
          "type": "uint256"
        }
      ],
      "name": "decreaseAllowance",
      "outputs": [
        {
          "internalType": "bool",
          "name": "",
          "type": "bool"
        }
      ],
      "stateMutability": "nonpayable",
      "type": "function"
    },
    {
      "inputs": [],
      "name": "eip712Domain",
      "outputs": [
        {
          "internalType": "bytes1",
          "name": "fields",
          "type": "bytes1"
        },
        {
          "internalType": "string",
          "name": "name",
          "type": "string"
        },
        {
          "internalType": "string",
          "name": "version",
          "type": "string"
        },
        {
          "internalType": "uint256",
          "name": "chainId",
          "type": "uint256"
        },
        {
          "internalType": "address",
          "name": "verifyingContract",
          "type": "address"
        },
        {
          "internalType": "bytes32",
          "name": "salt",
          "type": "bytes32"
        },
        {
          "internalType": "uint256[]",
          "name": "extensions",
          "type": "uint256[]"
        }
      ],
      "stateMutability": "view",
      "type": "function"
    },
    {
      "inputs": [
        {
          "internalType": "address",
          "name": "spender",
          "type": "address"
        },
        {
          "internalType": "uint256",
          "name": "addedValue",
          "type": "uint256"
        }
      ],
      "name": "increaseAllowance",
      "outputs": [
        {
          "internalType": "bool",
          "name": "",
          "type": "bool"
        }
      ],
      "stateMutability": "nonpayable",
      "type": "function"
    },
    {
      "inputs": [],
      "name": "initialize",
      "outputs": [],
      "stateMutability": "nonpayable",
      "type": "function"
    },
    {
      "inputs": [
        {
          "internalType": "address",
          "name": "to",
          "type": "address"
        },
        {
          "internalType": "uint256",
          "name": "amount",
          "type": "uint256"
        }
      ],
      "name": "mint",
      "outputs": [],
      "stateMutability": "nonpayable",
      "type": "function"
    },
    {
      "inputs": [
        {
          "internalType": "address[]",
          "name": "dests",
          "type": "address[]"
        },
        {
          "internalType": "uint256[]",
          "name": "values",
          "type": "uint256[]"
        }
      ],
      "name": "multisend",
      "outputs": [
        {
          "internalType": "uint256",
          "name": "",
          "type": "uint256"
        }
      ],
      "stateMutability": "nonpayable",
      "type": "function"
    },
    {
      "inputs": [],
      "name": "name",
      "outputs": [
        {
          "internalType": "string",
          "name": "",
          "type": "string"
        }
      ],
      "stateMutability": "view",
      "type": "function"
    },
    {
      "inputs": [
        {
          "internalType": "address",
          "name": "owner",
          "type": "address"
        }
      ],
      "name": "nonces",
      "outputs": [
        {
          "internalType": "uint256",
          "name": "",
          "type": "uint256"
        }
      ],
      "stateMutability": "view",
      "type": "function"
    },
    {
      "inputs": [],
      "name": "owner",
      "outputs": [
        {
          "internalType": "address",
          "name": "",
          "type": "address"
        }
      ],
      "stateMutability": "view",
      "type": "function"
    },
    {
      "inputs": [],
      "name": "pause",
      "outputs": [],
      "stateMutability": "nonpayable",
      "type": "function"
    },
    {
      "inputs": [],
      "name": "paused",
      "outputs": [
        {
          "internalType": "bool",
          "name": "",
          "type": "bool"
        }
      ],
      "stateMutability": "view",
      "type": "function"
    },
    {
      "inputs": [
        {
          "internalType": "address",
          "name": "owner",
          "type": "address"
        },
        {
          "internalType": "address",
          "name": "spender",
          "type": "address"
        },
        {
          "internalType": "uint256",
          "name": "value",
          "type": "uint256"
        },
        {
          "internalType": "uint256",
          "name": "deadline",
          "type": "uint256"
        },
        {
          "internalType": "uint8",
          "name": "v",
          "type": "uint8"
        },
        {
          "internalType": "bytes32",
          "name": "r",
          "type": "bytes32"
        },
        {
          "internalType": "bytes32",
          "name": "s",
          "type": "bytes32"
        }
      ],
      "name": "permit",
      "outputs": [],
      "stateMutability": "nonpayable",
      "type": "function"
    },
    {
      "inputs": [],
      "name": "renounceOwnership",
      "outputs": [],
      "stateMutability": "nonpayable",
      "type": "function"
    },
    {
      "inputs": [],
      "name": "symbol",
      "outputs": [
        {
          "internalType": "string",
          "name": "",
          "type": "string"
        }
      ],
      "stateMutability": "view",
      "type": "function"
    },
    {
      "inputs": [],
      "name": "totalSupply",
      "outputs": [
        {
          "internalType": "uint256",
          "name": "",
          "type": "uint256"
        }
      ],
      "stateMutability": "view",
      "type": "function"
    },
    {
      "inputs": [
        {
          "internalType": "address",
          "name": "to",
          "type": "address"
        },
        {
          "internalType": "uint256",
          "name": "amount",
          "type": "uint256"
        }
      ],
      "name": "transfer",
      "outputs": [
        {
          "internalType": "bool",
          "name": "",
          "type": "bool"
        }
      ],
      "stateMutability": "nonpayable",
      "type": "function"
    },
    {
      "inputs": [
        {
          "internalType": "address",
          "name": "from",
          "type": "address"
        },
        {
          "internalType": "address",
          "name": "to",
          "type": "address"
        },
        {
          "internalType": "uint256",
          "name": "amount",
          "type": "uint256"
        }
      ],
      "name": "transferFrom",
      "outputs": [
        {
          "internalType": "bool",
          "name": "",
          "type": "bool"
        }
      ],
      "stateMutability": "nonpayable",
      "type": "function"
    },
    {
      "inputs": [
        {
          "internalType": "address",
          "name": "newOwner",
          "type": "address"
        }
      ],
      "name": "transferOwnership",
      "outputs": [],
      "stateMutability": "nonpayable",
      "type": "function"
    },
    {
      "inputs": [
        {
          "internalType": "address",
          "name": "owner",
          "type": "address"
        },
        {
          "internalType": "address",
          "name": "spender",
          "type": "address"
        },
        {
          "internalType": "address",
          "name": "recipient",
          "type": "address"
        },
        {
          "internalType": "uint256",
          "name": "value",
          "type": "uint256"
        },
        {
          "internalType": "uint256",
          "name": "fee",
          "type": "uint256"
        },
        {
          "internalType": "uint256",
          "name": "deadline",
          "type": "uint256"
        },
        {
          "internalType": "uint8",
          "name": "v",
          "type": "uint8"
        },
        {
          "internalType": "bytes32",
          "name": "r",
          "type": "bytes32"
        },
        {
          "internalType": "bytes32",
          "name": "s",
          "type": "bytes32"
        }
      ],
      "name": "transferWithPermit",
      "outputs": [],
      "stateMutability": "nonpayable",
      "type": "function"
    },
    {
      "inputs": [],
      "name": "unpause",
      "outputs": [],
      "stateMutability": "nonpayable",
      "type": "function"
    }
  ],
  "bytecode": "0x60806040523480156200001157600080fd5b50620000226200002860201b60201c565b620001d2565b600060019054906101000a900460ff16156200007b576040517f08c379a0000000000000000000000000000000000000000000000000000000008152600401620000729062000175565b60405180910390fd5b60ff801660008054906101000a900460ff1660ff1614620000ec5760ff6000806101000a81548160ff021916908360ff1602179055507f7f26b83ff96e1f2b6a682f133852f6798a09c465da95921460cefb384740249860ff604051620000e39190620001b5565b60405180910390a15b565b600082825260208201905092915050565b7f496e697469616c697a61626c653a20636f6e747261637420697320696e69746960008201527f616c697a696e6700000000000000000000000000000000000000000000000000602082015250565b60006200015d602783620000ee565b91506200016a82620000ff565b604082019050919050565b6000602082019050818103600083015262000190816200014e565b9050919050565b600060ff82169050919050565b620001af8162000197565b82525050565b6000602082019050620001cc6000830184620001a4565b92915050565b613c8a80620001e26000396000f3fe608060405234801561001057600080fd5b50600436106101a95760003560e01c806379cc6790116100f9578063a457c2d711610097578063d505accf11610071578063d505accf146104a0578063dd62ed3e146104bc578063f2fde38b146104ec578063fdd9589414610508576101a9565b8063a457c2d714610410578063a9059cbb14610440578063aad41a4114610470576101a9565b80638456cb59116100d35780638456cb59146103a657806384b0196e146103b05780638da5cb5b146103d457806395d89b41146103f2576101a9565b806379cc6790146103505780637ecebe001461036c5780638129fc1c1461039c576101a9565b8063395093511161016657806342966c681161014057806342966c68146102dc5780635c975abb146102f857806370a0823114610316578063715018a614610346576101a9565b806339509351146102865780633f4ba83a146102b657806340c10f19146102c0576101a9565b806306fdde03146101ae578063095ea7b3146101cc57806318160ddd146101fc57806323b872dd1461021a578063313ce5671461024a5780633644e51514610268575b600080fd5b6101b6610524565b6040516101c391906123a6565b60405180910390f35b6101e660048036038101906101e19190612470565b6105b6565b6040516101f391906124cb565b60405180910390f35b6102046105d9565b60405161021191906124f5565b60405180910390f35b610234600480360381019061022f9190612510565b6105e3565b60405161024191906124cb565b60405180910390f35b610252610612565b60405161025f919061257f565b60405180910390f35b61027061061b565b60405161027d91906125b3565b60405180910390f35b6102a0600480360381019061029b9190612470565b61062a565b6040516102ad91906124cb565b60405180910390f35b6102be610661565b005b6102da60048036038101906102d59190612470565b610673565b005b6102f660048036038101906102f191906125ce565b610681565b005b610300610695565b60405161030d91906124cb565b60405180910390f35b610330600480360381019061032b91906125fb565b6106ac565b60405161033d91906124f5565b60405180910390f35b61034e6106f5565b005b61036a60048036038101906103659190612470565b610709565b005b610386600480360381019061038191906125fb565b610729565b60405161039391906124f5565b60405180910390f35b6103a461077a565b005b6103ae61097a565b005b6103b861098c565b6040516103cb9796959493929190612730565b60405180910390f35b6103dc610a8d565b6040516103e991906127b4565b60405180910390f35b6103fa610ab7565b60405161040791906123a6565b60405180910390f35b61042a60048036038101906104259190612470565b610b49565b60405161043791906124cb565b60405180910390f35b61045a60048036038101906104559190612470565b610bc0565b60405161046791906124cb565b60405180910390f35b61048a600480360381019061048591906129da565b610be3565b60405161049791906124f5565b60405180910390f35b6104ba60048036038101906104b59190612aaa565b610c51565b005b6104d660048036038101906104d19190612b4c565b610d93565b6040516104e391906124f5565b60405180910390f35b610506600480360381019061050191906125fb565b610e1a565b005b610522600480360381019061051d9190612b8c565b610e9d565b005b60606036805461053390612c85565b80601f016020809104026020016040519081016040528092919081815260200182805461055f90612c85565b80156105ac5780601f10610581576101008083540402835291602001916105ac565b820191906000526020600020905b81548152906001019060200180831161058f57829003601f168201915b5050505050905090565b6000806105c1610eda565b90506105ce818585610ee2565b600191505092915050565b6000603554905090565b6000806105ee610eda565b90506105fb8582856110ab565b610606858585611137565b60019150509392505050565b60006012905090565b60006106256113b0565b905090565b600080610635610eda565b90506106568185856106478589610d93565b6106519190612ce5565b610ee2565b600191505092915050565b6106696113bf565b61067161143d565b565b61067d82826114a0565b5050565b61069261068c610eda565b826115f7565b50565b6000609760009054906101000a900460ff16905090565b6000603360008373ffffffffffffffffffffffffffffffffffffffff1673ffffffffffffffffffffffffffffffffffffffff168152602001908152602001600020549050919050565b6106fd6113bf565b61070760006117c6565b565b61071b82610715610eda565b836110ab565b61072582826115f7565b5050565b600061077361012f60008473ffffffffffffffffffffffffffffffffffffffff1673ffffffffffffffffffffffffffffffffffffffff16815260200190815260200160002061188c565b9050919050565b60008060019054906101000a900460ff161590508080156107ab5750600160008054906101000a900460ff1660ff16105b806107d857506107ba3061189a565b1580156107d75750600160008054906101000a900460ff1660ff16145b5b610817576040517f08c379a000000000000000000000000000000000000000000000000000000000815260040161080e90612d8b565b60405180910390fd5b60016000806101000a81548160ff021916908360ff1602179055508015610854576001600060016101000a81548160ff0219169083151502179055505b6108c86040518060400160405280600781526020017f54657374506f4c000000000000000000000000000000000000000000000000008152506040518060400160405280600281526020017f54500000000000000000000000000000000000000000000000000000000000008152506118bd565b6108d061191a565b6108d861196b565b6108e06119c4565b61091e6040518060400160405280600781526020017f54657374506f4c00000000000000000000000000000000000000000000000000815250611a1d565b80156109775760008060016101000a81548160ff0219169083151502179055507f7f26b83ff96e1f2b6a682f133852f6798a09c465da95921460cefb3847402498600160405161096e9190612df0565b60405180910390a15b50565b6109826113bf565b61098a611aae565b565b6000606080600080600060606000801b60fb541480156109b057506000801b60fc54145b6109ef576040517f08c379a00000000000000000000000000000000000000000000000000000000081526004016109e690612e57565b60405180910390fd5b6109f7611b11565b6109ff611ba3565b46306000801b600067ffffffffffffffff811115610a2057610a1f6127d4565b5b604051908082528060200260200182016040528015610a4e5781602001602082028036833780820191505090505b507f0f00000000000000000000000000000000000000000000000000000000000000959493929190965096509650965096509650965090919293949596565b600060c960009054906101000a900473ffffffffffffffffffffffffffffffffffffffff16905090565b606060378054610ac690612c85565b80601f0160208091040260200160405190810160405280929190818152602001828054610af290612c85565b8015610b3f5780601f10610b1457610100808354040283529160200191610b3f565b820191906000526020600020905b815481529060010190602001808311610b2257829003601f168201915b5050505050905090565b600080610b54610eda565b90506000610b628286610d93565b905083811015610ba7576040517f08c379a0000000000000000000000000000000000000000000000000000000008152600401610b9e90612ee9565b60405180910390fd5b610bb48286868403610ee2565b60019250505092915050565b600080610bcb610eda565b9050610bd8818585611137565b600191505092915050565b600080600090505b8351811015610c4757610c32848281518110610c0a57610c09612f09565b5b6020026020010151848381518110610c2557610c24612f09565b5b6020026020010151610bc0565b50600181610c409190612ce5565b9050610beb565b8091505092915050565b83421115610c94576040517f08c379a0000000000000000000000000000000000000000000000000000000008152600401610c8b90612f84565b60405180910390fd5b60007f6e71edae12b1b97f4d1f60370fef10105fa2faae0126114a169c64845d6126c9888888610cc38c611c35565b89604051602001610cd996959493929190612fa4565b6040516020818303038152906040528051906020012090506000610cfc82611c94565b90506000610d0c82878787611cae565b90508973ffffffffffffffffffffffffffffffffffffffff168173ffffffffffffffffffffffffffffffffffffffff1614610d7c576040517f08c379a0000000000000000000000000000000000000000000000000000000008152600401610d7390613051565b60405180910390fd5b610d878a8a8a610ee2565b50505050505050505050565b6000603460008473ffffffffffffffffffffffffffffffffffffffff1673ffffffffffffffffffffffffffffffffffffffff16815260200190815260200160002060008373ffffffffffffffffffffffffffffffffffffffff1673ffffffffffffffffffffffffffffffffffffffff16815260200190815260200160002054905092915050565b610e226113bf565b600073ffffffffffffffffffffffffffffffffffffffff168173ffffffffffffffffffffffffffffffffffffffff1603610e91576040517f08c379a0000000000000000000000000000000000000000000000000000000008152600401610e88906130e3565b60405180910390fd5b610e9a816117c6565b50565b610eb789898789610eae9190612ce5565b87878787610c51565b610ec28988886105e3565b50610ece8933876105e3565b50505050505050505050565b600033905090565b600073ffffffffffffffffffffffffffffffffffffffff168373ffffffffffffffffffffffffffffffffffffffff1603610f51576040517f08c379a0000000000000000000000000000000000000000000000000000000008152600401610f4890613175565b60405180910390fd5b600073ffffffffffffffffffffffffffffffffffffffff168273ffffffffffffffffffffffffffffffffffffffff1603610fc0576040517f08c379a0000000000000000000000000000000000000000000000000000000008152600401610fb790613207565b60405180910390fd5b80603460008573ffffffffffffffffffffffffffffffffffffffff1673ffffffffffffffffffffffffffffffffffffffff16815260200190815260200160002060008473ffffffffffffffffffffffffffffffffffffffff1673ffffffffffffffffffffffffffffffffffffffff168152602001908152602001600020819055508173ffffffffffffffffffffffffffffffffffffffff168373ffffffffffffffffffffffffffffffffffffffff167f8c5be1e5ebec7d5bd14f71427d1e84f3dd0314c0f7b2291e5b200ac8c7c3b9258360405161109e91906124f5565b60405180910390a3505050565b60006110b78484610d93565b90507fffffffffffffffffffffffffffffffffffffffffffffffffffffffffffffffff81146111315781811015611123576040517f08c379a000000000000000000000000000000000000000000000000000000000815260040161111a90613273565b60405180910390fd5b6111308484848403610ee2565b5b50505050565b600073ffffffffffffffffffffffffffffffffffffffff168373ffffffffffffffffffffffffffffffffffffffff16036111a6576040517f08c379a000000000000000000000000000000000000000000000000000000000815260040161119d90613305565b60405180910390fd5b600073ffffffffffffffffffffffffffffffffffffffff168273ffffffffffffffffffffffffffffffffffffffff1603611215576040517f08c379a000000000000000000000000000000000000000000000000000000000815260040161120c90613397565b60405180910390fd5b611220838383611cd9565b6000603360008573ffffffffffffffffffffffffffffffffffffffff1673ffffffffffffffffffffffffffffffffffffffff168152602001908152602001600020549050818110156112a7576040517f08c379a000000000000000000000000000000000000000000000000000000000815260040161129e90613429565b60405180910390fd5b818103603360008673ffffffffffffffffffffffffffffffffffffffff1673ffffffffffffffffffffffffffffffffffffffff1681526020019081526020016000208190555081603360008573ffffffffffffffffffffffffffffffffffffffff1673ffffffffffffffffffffffffffffffffffffffff168152602001908152602001600020600082825401925050819055508273ffffffffffffffffffffffffffffffffffffffff168473ffffffffffffffffffffffffffffffffffffffff167fddf252ad1be2c89b69c2b068fc378daa952ba7f163c4a11628f55a4df523b3ef8460405161139791906124f5565b60405180910390a36113aa848484611cde565b50505050565b60006113ba611ce3565b905090565b6113c7610eda565b73ffffffffffffffffffffffffffffffffffffffff166113e5610a8d565b73ffffffffffffffffffffffffffffffffffffffff161461143b576040517f08c379a000000000000000000000000000000000000000000000000000000000815260040161143290613495565b60405180910390fd5b565b611445611d47565b6000609760006101000a81548160ff0219169083151502179055507f5db9ee0a495bf2e6ff9c91a7834c1ba4fdd244a5e8aa4e537bd38aeae4b073aa611489610eda565b60405161149691906127b4565b60405180910390a1565b600073ffffffffffffffffffffffffffffffffffffffff168273ffffffffffffffffffffffffffffffffffffffff160361150f576040517f08c379a000000000000000000000000000000000000000000000000000000000815260040161150690613501565b60405180910390fd5b61151b60008383611cd9565b806035600082825461152d9190612ce5565b9250508190555080603360008473ffffffffffffffffffffffffffffffffffffffff1673ffffffffffffffffffffffffffffffffffffffff168152602001908152602001600020600082825401925050819055508173ffffffffffffffffffffffffffffffffffffffff16600073ffffffffffffffffffffffffffffffffffffffff167fddf252ad1be2c89b69c2b068fc378daa952ba7f163c4a11628f55a4df523b3ef836040516115df91906124f5565b60405180910390a36115f360008383611cde565b5050565b600073ffffffffffffffffffffffffffffffffffffffff168273ffffffffffffffffffffffffffffffffffffffff1603611666576040517f08c379a000000000000000000000000000000000000000000000000000000000815260040161165d90613593565b60405180910390fd5b61167282600083611cd9565b6000603360008473ffffffffffffffffffffffffffffffffffffffff1673ffffffffffffffffffffffffffffffffffffffff168152602001908152602001600020549050818110156116f9576040517f08c379a00000000000000000000000000000000000000000000000000000000081526004016116f090613625565b60405180910390fd5b818103603360008573ffffffffffffffffffffffffffffffffffffffff1673ffffffffffffffffffffffffffffffffffffffff1681526020019081526020016000208190555081603560008282540392505081905550600073ffffffffffffffffffffffffffffffffffffffff168373ffffffffffffffffffffffffffffffffffffffff167fddf252ad1be2c89b69c2b068fc378daa952ba7f163c4a11628f55a4df523b3ef846040516117ad91906124f5565b60405180910390a36117c183600084611cde565b505050565b600060c960009054906101000a900473ffffffffffffffffffffffffffffffffffffffff1690508160c960006101000a81548173ffffffffffffffffffffffffffffffffffffffff021916908373ffffffffffffffffffffffffffffffffffffffff1602179055508173ffffffffffffffffffffffffffffffffffffffff168173ffffffffffffffffffffffffffffffffffffffff167f8be0079c531659141344cd1fd0a4f28419497f9722a3daafe3b4186f6b6457e060405160405180910390a35050565b600081600001549050919050565b6000808273ffffffffffffffffffffffffffffffffffffffff163b119050919050565b600060019054906101000a900460ff1661190c576040517f08c379a0000000000000000000000000000000000000000000000000000000008152600401611903906136b7565b60405180910390fd5b6119168282611d90565b5050565b600060019054906101000a900460ff16611969576040517f08c379a0000000000000000000000000000000000000000000000000000000008152600401611960906136b7565b60405180910390fd5b565b600060019054906101000a900460ff166119ba576040517f08c379a00000000000000000000000000000000000000000000000000000000081526004016119b1906136b7565b60405180910390fd5b6119c2611e03565b565b600060019054906101000a900460ff16611a13576040517f08c379a0000000000000000000000000000000000000000000000000000000008152600401611a0a906136b7565b60405180910390fd5b611a1b611e6f565b565b600060019054906101000a900460ff16611a6c576040517f08c379a0000000000000000000000000000000000000000000000000000000008152600401611a63906136b7565b60405180910390fd5b611aab816040518060400160405280600181526020017f3100000000000000000000000000000000000000000000000000000000000000815250611ed0565b50565b611ab6611f57565b6001609760006101000a81548160ff0219169083151502179055507f62e78cea01bee320cd4e420270b5ea74000d11b0c9f74754ebdbfc544b05a258611afa610eda565b604051611b0791906127b4565b60405180910390a1565b606060fd8054611b2090612c85565b80601f0160208091040260200160405190810160405280929190818152602001828054611b4c90612c85565b8015611b995780601f10611b6e57610100808354040283529160200191611b99565b820191906000526020600020905b815481529060010190602001808311611b7c57829003601f168201915b5050505050905090565b606060fe8054611bb290612c85565b80601f0160208091040260200160405190810160405280929190818152602001828054611bde90612c85565b8015611c2b5780601f10611c0057610100808354040283529160200191611c2b565b820191906000526020600020905b815481529060010190602001808311611c0e57829003601f168201915b5050505050905090565b60008061012f60008473ffffffffffffffffffffffffffffffffffffffff1673ffffffffffffffffffffffffffffffffffffffff1681526020019081526020016000209050611c838161188c565b9150611c8e81611fa1565b50919050565b6000611ca7611ca16113b0565b83611fb7565b9050919050565b6000806000611cbf87878787611ff8565b91509150611ccc816120da565b8192505050949350505050565b505050565b505050565b60007f8b73c3c69bb8fe3d512ecc4cf759cc79239f7b179b0ffacaa9a75d522b39400f611d0e612240565b611d166122ab565b4630604051602001611d2c9594939291906136d7565b60405160208183030381529060405280519060200120905090565b611d4f610695565b611d8e576040517f08c379a0000000000000000000000000000000000000000000000000000000008152600401611d8590613776565b60405180910390fd5b565b600060019054906101000a900460ff16611ddf576040517f08c379a0000000000000000000000000000000000000000000000000000000008152600401611dd6906136b7565b60405180910390fd5b8160369081611dee9190613938565b508060379081611dfe9190613938565b505050565b600060019054906101000a900460ff16611e52576040517f08c379a0000000000000000000000000000000000000000000000000000000008152600401611e49906136b7565b60405180910390fd5b6000609760006101000a81548160ff021916908315150217905550565b600060019054906101000a900460ff16611ebe576040517f08c379a0000000000000000000000000000000000000000000000000000000008152600401611eb5906136b7565b60405180910390fd5b611ece611ec9610eda565b6117c6565b565b600060019054906101000a900460ff16611f1f576040517f08c379a0000000000000000000000000000000000000000000000000000000008152600401611f16906136b7565b60405180910390fd5b8160fd9081611f2e9190613938565b508060fe9081611f3e9190613938565b506000801b60fb819055506000801b60fc819055505050565b611f5f610695565b15611f9f576040517f08c379a0000000000000000000000000000000000000000000000000000000008152600401611f9690613a56565b60405180910390fd5b565b6001816000016000828254019250508190555050565b60006040517f190100000000000000000000000000000000000000000000000000000000000081528360028201528260228201526042812091505092915050565b6000807f7fffffffffffffffffffffffffffffff5d576e7357a4501ddfe92f46681b20a08360001c11156120335760006003915091506120d1565b6000600187878787604051600081526020016040526040516120589493929190613a76565b6020604051602081039080840390855afa15801561207a573d6000803e3d6000fd5b505050602060405103519050600073ffffffffffffffffffffffffffffffffffffffff168173ffffffffffffffffffffffffffffffffffffffff16036120c8576000600192509250506120d1565b80600092509250505b94509492505050565b600060048111156120ee576120ed613abb565b5b81600481111561210157612100613abb565b5b031561223d576001600481111561211b5761211a613abb565b5b81600481111561212e5761212d613abb565b5b0361216e576040517f08c379a000000000000000000000000000000000000000000000000000000000815260040161216590613b36565b60405180910390fd5b6002600481111561218257612181613abb565b5b81600481111561219557612194613abb565b5b036121d5576040517f08c379a00000000000000000000000000000000000000000000000000000000081526004016121cc90613ba2565b60405180910390fd5b600360048111156121e9576121e8613abb565b5b8160048111156121fc576121fb613abb565b5b0361223c576040517f08c379a000000000000000000000000000000000000000000000000000000000815260040161223390613c34565b60405180910390fd5b5b50565b60008061224b611b11565b90506000815111156122675780805190602001209150506122a8565b600060fb5490506000801b81146122825780925050506122a8565b7fc5d2460186f7233c927e7db2dcc703c0e500b653ca82273b7bfad8045d85a470925050505b90565b6000806122b6611ba3565b90506000815111156122d2578080519060200120915050612313565b600060fc5490506000801b81146122ed578092505050612313565b7fc5d2460186f7233c927e7db2dcc703c0e500b653ca82273b7bfad8045d85a470925050505b90565b600081519050919050565b600082825260208201905092915050565b60005b83811015612350578082015181840152602081019050612335565b60008484015250505050565b6000601f19601f8301169050919050565b600061237882612316565b6123828185612321565b9350612392818560208601612332565b61239b8161235c565b840191505092915050565b600060208201905081810360008301526123c0818461236d565b905092915050565b6000604051905090565b600080fd5b600080fd5b600073ffffffffffffffffffffffffffffffffffffffff82169050919050565b6000612407826123dc565b9050919050565b612417816123fc565b811461242257600080fd5b50565b6000813590506124348161240e565b92915050565b6000819050919050565b61244d8161243a565b811461245857600080fd5b50565b60008135905061246a81612444565b92915050565b60008060408385031215612487576124866123d2565b5b600061249585828601612425565b92505060206124a68582860161245b565b9150509250929050565b60008115159050919050565b6124c5816124b0565b82525050565b60006020820190506124e060008301846124bc565b92915050565b6124ef8161243a565b82525050565b600060208201905061250a60008301846124e6565b92915050565b600080600060608486031215612529576125286123d2565b5b600061253786828701612425565b935050602061254886828701612425565b92505060406125598682870161245b565b9150509250925092565b600060ff82169050919050565b61257981612563565b82525050565b60006020820190506125946000830184612570565b92915050565b6000819050919050565b6125ad8161259a565b82525050565b60006020820190506125c860008301846125a4565b92915050565b6000602082840312156125e4576125e36123d2565b5b60006125f28482850161245b565b91505092915050565b600060208284031215612611576126106123d2565b5b600061261f84828501612425565b91505092915050565b60007fff0000000000000000000000000000000000000000000000000000000000000082169050919050565b61265d81612628565b82525050565b61266c816123fc565b82525050565b600081519050919050565b600082825260208201905092915050565b6000819050602082019050919050565b6126a78161243a565b82525050565b60006126b9838361269e565b60208301905092915050565b6000602082019050919050565b60006126dd82612672565b6126e7818561267d565b93506126f28361268e565b8060005b8381101561272357815161270a88826126ad565b9750612715836126c5565b9250506001810190506126f6565b5085935050505092915050565b600060e082019050612745600083018a612654565b8181036020830152612757818961236d565b9050818103604083015261276b818861236d565b905061277a60608301876124e6565b6127876080830186612663565b61279460a08301856125a4565b81810360c08301526127a681846126d2565b905098975050505050505050565b60006020820190506127c96000830184612663565b92915050565b600080fd5b7f4e487b7100000000000000000000000000000000000000000000000000000000600052604160045260246000fd5b61280c8261235c565b810181811067ffffffffffffffff8211171561282b5761282a6127d4565b5b80604052505050565b600061283e6123c8565b905061284a8282612803565b919050565b600067ffffffffffffffff82111561286a576128696127d4565b5b602082029050602081019050919050565b600080fd5b600061289361288e8461284f565b612834565b905080838252602082019050602084028301858111156128b6576128b561287b565b5b835b818110156128df57806128cb8882612425565b8452602084019350506020810190506128b8565b5050509392505050565b600082601f8301126128fe576128fd6127cf565b5b813561290e848260208601612880565b91505092915050565b600067ffffffffffffffff821115612932576129316127d4565b5b602082029050602081019050919050565b600061295661295184612917565b612834565b905080838252602082019050602084028301858111156129795761297861287b565b5b835b818110156129a2578061298e888261245b565b84526020840193505060208101905061297b565b5050509392505050565b600082601f8301126129c1576129c06127cf565b5b81356129d1848260208601612943565b91505092915050565b600080604083850312156129f1576129f06123d2565b5b600083013567ffffffffffffffff811115612a0f57612a0e6123d7565b5b612a1b858286016128e9565b925050602083013567ffffffffffffffff811115612a3c57612a3b6123d7565b5b612a48858286016129ac565b9150509250929050565b612a5b81612563565b8114612a6657600080fd5b50565b600081359050612a7881612a52565b92915050565b612a878161259a565b8114612a9257600080fd5b50565b600081359050612aa481612a7e565b92915050565b600080600080600080600060e0888a031215612ac957612ac86123d2565b5b6000612ad78a828b01612425565b9750506020612ae88a828b01612425565b9650506040612af98a828b0161245b565b9550506060612b0a8a828b0161245b565b9450506080612b1b8a828b01612a69565b93505060a0612b2c8a828b01612a95565b92505060c0612b3d8a828b01612a95565b91505092959891949750929550565b60008060408385031215612b6357612b626123d2565b5b6000612b7185828601612425565b9250506020612b8285828601612425565b9150509250929050565b60008060008060008060008060006101208a8c031215612baf57612bae6123d2565b5b6000612bbd8c828d01612425565b9950506020612bce8c828d01612425565b9850506040612bdf8c828d01612425565b9750506060612bf08c828d0161245b565b9650506080612c018c828d0161245b565b95505060a0612c128c828d0161245b565b94505060c0612c238c828d01612a69565b93505060e0612c348c828d01612a95565b925050610100612c468c828d01612a95565b9150509295985092959850929598565b7f4e487b7100000000000000000000000000000000000000000000000000000000600052602260045260246000fd5b60006002820490506001821680612c9d57607f821691505b602082108103612cb057612caf612c56565b5b50919050565b7f4e487b7100000000000000000000000000000000000000000000000000000000600052601160045260246000fd5b6000612cf08261243a565b9150612cfb8361243a565b9250828201905080821115612d1357612d12612cb6565b5b92915050565b7f496e697469616c697a61626c653a20636f6e747261637420697320616c72656160008201527f647920696e697469616c697a6564000000000000000000000000000000000000602082015250565b6000612d75602e83612321565b9150612d8082612d19565b604082019050919050565b60006020820190508181036000830152612da481612d68565b9050919050565b6000819050919050565b6000819050919050565b6000612dda612dd5612dd084612dab565b612db5565b612563565b9050919050565b612dea81612dbf565b82525050565b6000602082019050612e056000830184612de1565b92915050565b7f4549503731323a20556e696e697469616c697a65640000000000000000000000600082015250565b6000612e41601583612321565b9150612e4c82612e0b565b602082019050919050565b60006020820190508181036000830152612e7081612e34565b9050919050565b7f45524332303a2064656372656173656420616c6c6f77616e63652062656c6f7760008201527f207a65726f000000000000000000000000000000000000000000000000000000602082015250565b6000612ed3602583612321565b9150612ede82612e77565b604082019050919050565b60006020820190508181036000830152612f0281612ec6565b9050919050565b7f4e487b7100000000000000000000000000000000000000000000000000000000600052603260045260246000fd5b7f45524332305065726d69743a206578706972656420646561646c696e65000000600082015250565b6000612f6e601d83612321565b9150612f7982612f38565b602082019050919050565b60006020820190508181036000830152612f9d81612f61565b9050919050565b600060c082019050612fb960008301896125a4565b612fc66020830188612663565b612fd36040830187612663565b612fe060608301866124e6565b612fed60808301856124e6565b612ffa60a08301846124e6565b979650505050505050565b7f45524332305065726d69743a20696e76616c6964207369676e61747572650000600082015250565b600061303b601e83612321565b915061304682613005565b602082019050919050565b6000602082019050818103600083015261306a8161302e565b9050919050565b7f4f776e61626c653a206e6577206f776e657220697320746865207a65726f206160008201527f6464726573730000000000000000000000000000000000000000000000000000602082015250565b60006130cd602683612321565b91506130d882613071565b604082019050919050565b600060208201905081810360008301526130fc816130c0565b9050919050565b7f45524332303a20617070726f76652066726f6d20746865207a65726f2061646460008201527f7265737300000000000000000000000000000000000000000000000000000000602082015250565b600061315f602483612321565b915061316a82613103565b604082019050919050565b6000602082019050818103600083015261318e81613152565b9050919050565b7f45524332303a20617070726f766520746f20746865207a65726f20616464726560008201527f7373000000000000000000000000000000000000000000000000000000000000602082015250565b60006131f1602283612321565b91506131fc82613195565b604082019050919050565b60006020820190508181036000830152613220816131e4565b9050919050565b7f45524332303a20696e73756666696369656e7420616c6c6f77616e6365000000600082015250565b600061325d601d83612321565b915061326882613227565b602082019050919050565b6000602082019050818103600083015261328c81613250565b9050919050565b7f45524332303a207472616e736665722066726f6d20746865207a65726f20616460008201527f6472657373000000000000000000000000000000000000000000000000000000602082015250565b60006132ef602583612321565b91506132fa82613293565b604082019050919050565b6000602082019050818103600083015261331e816132e2565b9050919050565b7f45524332303a207472616e7366657220746f20746865207a65726f206164647260008201527f6573730000000000000000000000000000000000000000000000000000000000602082015250565b6000613381602383612321565b915061338c82613325565b604082019050919050565b600060208201905081810360008301526133b081613374565b9050919050565b7f45524332303a207472616e7366657220616d6f756e742065786365656473206260008201527f616c616e63650000000000000000000000000000000000000000000000000000602082015250565b6000613413602683612321565b915061341e826133b7565b604082019050919050565b6000602082019050818103600083015261344281613406565b9050919050565b7f4f776e61626c653a2063616c6c6572206973206e6f7420746865206f776e6572600082015250565b600061347f602083612321565b915061348a82613449565b602082019050919050565b600060208201905081810360008301526134ae81613472565b9050919050565b7f45524332303a206d696e7420746f20746865207a65726f206164647265737300600082015250565b60006134eb601f83612321565b91506134f6826134b5565b602082019050919050565b6000602082019050818103600083015261351a816134de565b9050919050565b7f45524332303a206275726e2066726f6d20746865207a65726f2061646472657360008201527f7300000000000000000000000000000000000000000000000000000000000000602082015250565b600061357d602183612321565b915061358882613521565b604082019050919050565b600060208201905081810360008301526135ac81613570565b9050919050565b7f45524332303a206275726e20616d6f756e7420657863656564732062616c616e60008201527f6365000000000000000000000000000000000000000000000000000000000000602082015250565b600061360f602283612321565b915061361a826135b3565b604082019050919050565b6000602082019050818103600083015261363e81613602565b9050919050565b7f496e697469616c697a61626c653a20636f6e7472616374206973206e6f74206960008201527f6e697469616c697a696e67000000000000000000000000000000000000000000602082015250565b60006136a1602b83612321565b91506136ac82613645565b604082019050919050565b600060208201905081810360008301526136d081613694565b9050919050565b600060a0820190506136ec60008301886125a4565b6136f960208301876125a4565b61370660408301866125a4565b61371360608301856124e6565b6137206080830184612663565b9695505050505050565b7f5061757361626c653a206e6f7420706175736564000000000000000000000000600082015250565b6000613760601483612321565b915061376b8261372a565b602082019050919050565b6000602082019050818103600083015261378f81613753565b9050919050565b60008190508160005260206000209050919050565b60006020601f8301049050919050565b600082821b905092915050565b6000600883026137f87fffffffffffffffffffffffffffffffffffffffffffffffffffffffffffffffff826137bb565b61380286836137bb565b95508019841693508086168417925050509392505050565b600061383561383061382b8461243a565b612db5565b61243a565b9050919050565b6000819050919050565b61384f8361381a565b61386361385b8261383c565b8484546137c8565b825550505050565b600090565b61387861386b565b613883818484613846565b505050565b5b818110156138a75761389c600082613870565b600181019050613889565b5050565b601f8211156138ec576138bd81613796565b6138c6846137ab565b810160208510156138d5578190505b6138e96138e1856137ab565b830182613888565b50505b505050565b600082821c905092915050565b600061390f600019846008026138f1565b1980831691505092915050565b600061392883836138fe565b9150826002028217905092915050565b61394182612316565b67ffffffffffffffff81111561395a576139596127d4565b5b6139648254612c85565b61396f8282856138ab565b600060209050601f8311600181146139a25760008415613990578287015190505b61399a858261391c565b865550613a02565b601f1984166139b086613796565b60005b828110156139d8578489015182556001820191506020850194506020810190506139b3565b868310156139f557848901516139f1601f8916826138fe565b8355505b6001600288020188555050505b505050505050565b7f5061757361626c653a2070617573656400000000000000000000000000000000600082015250565b6000613a40601083612321565b9150613a4b82613a0a565b602082019050919050565b60006020820190508181036000830152613a6f81613a33565b9050919050565b6000608082019050613a8b60008301876125a4565b613a986020830186612570565b613aa560408301856125a4565b613ab260608301846125a4565b95945050505050565b7f4e487b7100000000000000000000000000000000000000000000000000000000600052602160045260246000fd5b7f45434453413a20696e76616c6964207369676e61747572650000000000000000600082015250565b6000613b20601883612321565b9150613b2b82613aea565b602082019050919050565b60006020820190508181036000830152613b4f81613b13565b9050919050565b7f45434453413a20696e76616c6964207369676e6174757265206c656e67746800600082015250565b6000613b8c601f83612321565b9150613b9782613b56565b602082019050919050565b60006020820190508181036000830152613bbb81613b7f565b9050919050565b7f45434453413a20696e76616c6964207369676e6174757265202773272076616c60008201527f7565000000000000000000000000000000000000000000000000000000000000602082015250565b6000613c1e602283612321565b9150613c2982613bc2565b604082019050919050565b60006020820190508181036000830152613c4d81613c11565b905091905056fea2646970667358221220a311eb750360f3b62e3a8e6ba1f0c5e3b9853df8263ccfef21dd60236c68624564736f6c63430008120033",
  "linkReferences": {},
  "deployedLinkReferences": {}
}